:020000040800F2
:1000000000000220B9020008BF020008C302000875
:1000100035030008390300088103000800000000D0
:100020000000000000000000000000003121000876
:10003000CD03000800000000D1210008352200088F
:10004000E5030008E5030008E5030008E5030008F0
:10005000E5030008E5030008E5030008E5030008E0
:10006000E5030008E5030008E5030008E5030008D0
:10007000E5030008E5030008E5030008E5030008C0
:10008000E5030008E5030008E5030008E5030008B0
:10009000E5030008E5030008E5030008E5030008A0
:1000A000E5030008E5030008E5030008E503000890
:1000B000E5030008E5030008E5030008E503000880
:1000C000E5030008E5030008E5030008E503000870
:1000D000E5030008E5030008E5030008E503000860
:1000E000E5030008E5030008E5030008E503000850
:1000F000E5030008E5030008E5030008E503000840
:10010000E5030008E5030008E5030008E50300082F
:10011000E5030008E5030008E5030008E50300081F
:10012000E5030008E5030008E5030008E50300080F
:10013000E5030008E5030008E5030008E5030008FF
:10014000E5030008E5030008E5030008E5030008EF
:10015000E5030008E5030008E5030008E5030008DF
:10016000E5030008E5030008E5030008E5030008CF
:10017000E5030008E5030008E503000800000000AF
:10018000E5030008E503000800B583B001F0A8FA14
:10019000384B394A1360394A1360394906E052F83E
:1001A000041B43F8041B9842F9D86146354B994229
:1001B00005D20A684B6801F10C0C8868F3E72E4BF6
:1001C0001A68314B9A4200D0FEE72C4B1A682F4B2D
:1001D0009A42F9D1274B2E4A13602E4A13602E4AB9
:1001E00000E002462D4B9A4209D2104650F8083BD7
:1001F00051689942F5D9002243F8042BF9E7244BC2
:100200001B6813B9234B1B6803B1FEE701F0D8FA52
:10021000694601A801F082F9214C224BE41AA4108E
:10022000002504E01F4B53F8253098470135AC42B8
:10023000F8DC1D4C1D4BE41AA410002504E01B4BF8
:1002400053F8253098470135AC42F8DC0099019805
:1002500001F040FC0546164C164BE41AA41004E0CD
:10026000013C144B53F824309847002CF8DC284606
:1002700001F031F9BABADECA000000207000002097
:10028000E8030008000400087856341232547698C7
:1002900074000020982E01200004000810040008BB
:1002A00010040008100400081004000810040008DE
:1002B000100400081004000808B5FFF765FF00BE31
:1002C000FEE71EF0040F0CBFEFF30880EFF3098088
:1002D0007146414A10472DE9F04182B004460D466F
:1002E000124B5F6BD3F838809E6A1B6B13F0020FC2
:1002F00003D00E4BDB6A002B0BDB0D4801F04CF9F1
:10030000009543463A463146204601F05FF900BE6B
:10031000FEE74BF6AB6101F0D3F90028EDD0034BBB
:100320004FF00042DA6202B0BDE8F08100ED00E07B
:100330003444000800BEFEE71EF0040F0CBFEFF3CC
:100340000880EFF309807146244A10472DE9F041F7
:1003500082B004460D46084B5F6BD3F838809E6A26
:10036000064801F019F9009543463A4631462046C1
:1003700001F02CF900BEFEE700ED00E04444000867
:100380001EF0040F0CBFEFF30880EFF309807146F5
:10039000134A10472DE9F04182B004460D46084B40
:1003A0005F6BD3F838809E6A064801F0F5F8009537
:1003B00043463A463146204601F008F900BEFEE7C2
:1003C00000ED00E05044000800BEFEE700BEFEE77E
:1003D00000BEFEE770470000D70200084D0300088A
:0803E0009503000800BEFEE7D2
:1003E800244700080000002074000020244700086B
:1003F8000000001000000010740000209C2E012056
:080408000000001000000010CC
:1004100010B504460E4B1A784FF47A73B3FBF2F31F
:100420000C4A1068B0FBF3F000F0AEF868B90F2C7E
:1004300001D901200AE0002221464FF0FF3000F0F0
:100440007FF8054B1C60002000E0012010BD00BFBC
:1004500004000020140000200800002008B50B4B09
:100460001A6842F400721A601A6842F480621A60D4
:100470001A6842F480721A60032000F043F80F20DB
:10048000FFF7C6FF01F0B4FB002008BD003C0240AE
:10049000014B1868704700BF78000020002808DB77
:1004A0000901C9B200F1604000F5614080F8001315
:1004B000704700F00F000901C9B2014B1954704791
:1004C00014ED00E000B500F00700C0F1070CBCF12E
:1004D000040F28BF4FF0040C031D062B0FD9C31EB9
:1004E0004FF0FF3E0EFA0CF021EA000199400EFA9F
:1004F00003FE22EA0E0241EA02005DF804FB00233B
:10050000EEE7000010B50446C31E042B0FD80A4ABC
:10051000D36823F4E0631B041B0C240204F4E0649E
:10052000234343F0BF6343F40033D36010BD9221F3
:10053000024801F04DF9EAE700ED00E054420008FE
:1005400070B506460C4615460F2A0ED80F2C11D84A
:100550000B4BD8682A462146C0F30220FFF7B2FFB2
:1005600001463046FFF79AFF70BDAA21054801F009
:100570002FF9EBE7AB21034801F02AF9E8E700BFC8
:1005800000ED00E0544200080138B0F1807F0BD24A
:100590004FF0E0235861054AF02182F82310002033
:1005A000986107221A6170470120704700ED00E052
:1005B0002DE9F04383B007460E46A54B984223D061
:1005C00003F5806398421FD003F5806398421BD0E7
:1005D00003F58063984217D003F58063984213D0E7
:1005E00003F5806398420FD003F5806398420BD0E7
:1005F00003F58063984207D003F58063984203D0E7
:10060000B321944801F0E4F833689AB212B1B3F51B
:10061000803F03D3B4218F4801F0DAF873688E4A23
:1006200093421ED00ED8A2F58012934219D005D85D
:10063000032B16D9113B012B13D90EE0874A9342A5
:100640000FD00AE0864A93420BD002F580329342E3
:1006500007D0A2F58012934203D0B5217D4801F066
:10066000B7F8B368022B01D8002448E0B6217948D6
:1006700001F0AEF8F8E7C821764801F0A9F854E097
:100680000F2B7CD0E021734801F0A2F877E007231C
:1006900000E000238B4003430232724941F82230CC
:1006A000714B1A686FEA080322EA0801706810F4B7
:1006B000803F01D048EA02016B4A1160526803EAA8
:1006C0000201706810F4003F01D048EA0201664A56
:1006D0005160926803EA0201706810F4801F01D033
:1006E00048EA0201604A9160D2681340716811F4CF
:1006F000001F01D048EA02035B4AD36001340F2C8B
:1007000000F2A2800125A540336803EA050835EA16
:100710000303F3D173685A1E012A03D9112B01D0A8
:10072000122B15D1F368032BA5D8BA6861000323F7
:100730008B4022EA0302F3688B401343BB607A6864
:1007400022EA05027368C3F30013A34013437B60DE
:10075000FA6865000323AB406FEA030922EA03024B
:10076000B368AB401343FB607368022B01D0122BBC
:1007700015D133691BB10D2B82D8002B82D0E20832
:10078000083257F8220004F0070189000F238B403C
:1007900020EA030033698B40034347F822303B686B
:1007A00009EA0309736803F00303AB4043EA090352
:1007B0003B60736813F0805FA0D0002301932B4B44
:1007C0005A6C42F480425A645B6C03F48043019398
:1007D000019BA208911C234B53F8210004F0030154
:1007E00089000F238B4020EA0300194B9F423FF4FE
:1007F00050AF03F580639F421AD003F580639F4298
:1008000018D003F580639F4216D003F580639F42A2
:1008100014D003F580639F4212D003F580639F429A
:1008200010D003F580639F423FF431AF082331E7D6
:1008300001232FE702232DE703232BE7042329E7D6
:10084000052327E7062325E703B0BDE8F08300BFB3
:100850000000024088420008000021100000121031
:100860000000311000380140003C014000380240D7
:1008700070B5054614460E4621B1012C08D86CB15E
:10088000AE6170BD40F29F11064800F0A1FFF4E791
:100890004FF4D071034800F09BFFF0E73604AE61DF
:1008A000EFE700BF8842000838B504460D4629B17D
:1008B000636935EA030307D0A56138BD4FF4DB71E6
:1008C000034800F085FFF3E72D04A561F5E700BFBD
:1008D00088420008002800F0588270B582B00446B3
:1008E00003680F2B39D8236813F0010F4DD06368CC
:1008F0002BB1B3F5803F02D0B3F5A02F32D1804B9E
:100900009B6803F00C03042B36D07D4B9B6803F0EF
:100910000C03082B2BD06368B3F5803F5FD0B3F591
:10092000A02F62D0764B1A6822F480321A601A68BF
:1009300022F480221A606368002B60D0FFF7A8FDC4
:1009400005466F4B1B6813F4003F1ED1FFF7A0FD57
:10095000401B6428F5D903201EE2E821694800F015
:1009600037FFC0E7ED21674800F032FFC7E7644B6F
:100970005B6813F4800FCED0614B1B6813F4003F0B
:1009800003D06368002B00F00282236813F0020F8B
:1009900066D0E368012B41D823691F2B44D8584BFC
:1009A0009B6813F00C0F4AD0554B9B6803F00C0367
:1009B000082B3FD0E368002B77D0534B01221A60FD
:1009C000FFF766FD05464E4B1B6813F0020F63D11F
:1009D000FFF75EFD401B0228F5D90320DCE1484A01
:1009E000136843F480331360A5E7454B1A6842F45B
:1009F00080221A601A6842F480321A609BE7FFF77F
:100A000047FD05463E4B1B6813F4003FBDD0FFF782
:100A10003FFD401B6428F5D90320BDE140F21F11C2
:100A2000384800F0D5FEB7E74FF49071354800F034
:100A3000CFFEB4E7324B5B6813F4800FBAD1304B72
:100A40001B6813F0020F03D0E368012B40F0A18173
:100A50002B4A136823F0F803216943EAC1031360AA
:100A6000236813F0080F51D06369012B2FD86369F5
:100A70009BB3254B0122C3F8802EFFF709FD0546E5
:100A80001F4B5B6F13F0020F40D1FFF701FD401BBE
:100A90000228F5D903207FE1194A136823F0F803EF
:100AA000216943EAC1031360DAE7174B00221A6099
:100AB000FFF7EEFC0546124B1B6813F0020FCFD078
:100AC000FFF7E6FC401B0228F5D9032064E14FF450
:100AD000B0710C4800F07CFEC9E70B4B0022C3F854
:100AE000802EFFF7D5FC0546054B5B6F13F0020F18
:100AF0000CD0FFF7CDFC401B0228F5D903204BE1B9
:100B000000380240B842000800004742236813F052
:100B1000040F7CD0A368012B01D9052B38D1A44B3D
:100B20001B6C13F0805F39D100230193A04B1A6C2A
:100B300042F080521A641B6C03F080530193019BB6
:100B400001259C4B1B6813F4807F29D0A368012BDF
:100B50003AD0052B3ED0964B1A6F22F001021A674D
:100B60001A6F22F004021A67A368002B3CD0FFF72B
:100B70008FFC06468E4B1B6F13F0020F45D1FFF71B
:100B800087FC801B41F288339842F3D9032003E1AC
:100B90004FF4C671884800F01BFEC0E70025D0E77F
:100BA000844A136843F480731360FFF771FC0646B0
:100BB000804B1B6813F4807FC8D1FFF769FC801B52
:100BC0000228F5D90320E7E0794A136F43F00103C7
:100BD0001367C9E7764B1A6F42F004021A671A6F5F
:100BE00042F001021A67BFE7FFF752FC0646704B5E
:100BF0001B6F13F0020F08D0FFF74AFC801B41F275
:100C000088339842F3D90320C6E0002D3BD1A36975
:100C1000022B3ED8A369002B00F0BD80644A926885
:100C200002F00C02082A00F09080022B79D1E369CF
:100C300013B1B3F5800F32D1236A3F2B35D8636AE5
:100C4000323BB3F5BF7F36D8A26A082A39D84FF4B1
:100C5000AA73D34013F0010F33D0E36A023B0D2B8C
:100C600035D8564B00221A66FFF712FC0546504B4A
:100C70001B6813F0007F30D0FFF70AFC401B0228EE
:100C8000F5D9032088E04A4A136C23F0805313649B
:100C9000BDE740F2CF11484800F09AFDBAE74FF4A3
:100CA000EC71454800F094FDC6E740F2D911424886
:100CB00000F08EFDC3E74FF4ED713F4800F088FD72
:100CC000C2E740F2DB113C4800F082FDC5E74FF47B
:100CD000EE71394800F07CFDC3E7E369226A1343F3
:100CE000626A43EA8213A26A5208013A43EA024363
:100CF000E26A43EA02632E4A5360304B01221A66CD
:100D0000FFF7C6FB04462A4B1B6813F0007F06D191
:100D1000FFF7BEFB001B0228F5D903203CE00020B2
:100D20003AE0264B00221A66FFF7B2FB0446204B3E
:100D30001B6813F0007F06D0FFF7AAFB001B0228F8
:100D4000F5D9032028E0002026E0012B26D0184BFF
:100D50005B6803F48001E269914221D103F03F0214
:100D6000216A8A421ED1616A47F6C0721A408A42DD
:100D70001AD103F44032A16A8A4217D103F070639A
:100D8000E26A93421CD1002006E001207047012056
:100D900002E0012000E0002002B070BD0120FBE76E
:100DA0000120F9E70120F7E70120F5E70120F3E74B
:100DB0000038024000700040B8420008000047427E
:100DC0000120E9E708B5334B9B6803F00C03042BC3
:100DD0005BD0082B5BD12F4B5A6802F03F025B6857
:100DE00013F4800F2CD02B4B5868C0F388104FEAB7
:100DF000401CBCEB000C6EEB0E0E4FEA8E1343EA68
:100E00009C634FEA8C11B1EB0C0163EB0E03DB002A
:100E100043EA5173C90011EB000C43F1000359027E
:100E200000234FEA4C2041EADC5102F0B3FB194B9E
:100E30005B68C3F3014301335B00B0FBF3F008BD13
:100E4000144B5868C0F388104FEA401CBCEB000CF0
:100E50006EEB0E0E4FEA8E1343EA9C634FEA8C1141
:100E6000B1EB0C0163EB0E03DB0043EA5173C900E5
:100E700011EB000C43F10003990200234FEA8C2090
:100E800041EA9C5102F086FBD1E70348D7E70348CB
:100E9000D5E700BF0038024000127A000024F400B9
:100EA000002800F0FA8070B50D4604460368013B47
:100EB0000E2B32D8072D36D87C4B1B6803F00F035E
:100EC000AB4208D2EBB2794A1370136803F00F03F8
:100ED000AB4240F0E480236813F0020F3ED013F0E1
:100EE000040F04D0724A936843F4E053936023687C
:100EF00013F0080F04D06E4A936843F46043936084
:100F0000A36823B3C02B22D016D8A02B1FD010D893
:100F1000802B1CD0902B1AD014E040F25121654850
:100F200000F056FCC6E740F25221624800F050FC47
:100F3000C2E7B02B0BD005E0E02B08D0F02B06D099
:100F4000D02B04D040F275215A4800F041FC584A99
:100F5000936823F0F003A1680B439360236813F0B8
:100F6000010F3CD06368032B25D86368012B28D080
:100F70009A1E012A2CD94E4A126812F0020F00F074
:100F800090804B498A6822F0030213438B60FFF77D
:100F90007FFA0646464B9B6803F00C036268B3EB8E
:100FA000820F1CD0FFF774FA801B41F288339842FD
:100FB000F0D9032064E04FF41F713E4800F008FCB4
:100FC000D3E73B4A126812F4003FDAD1012057E020
:100FD000374A126812F0007FD3D1012050E0334B22
:100FE0001B6803F00F03AB4207D9EAB22F4B1A700C
:100FF0001B6803F00F03AB4255D1236813F0040FB5
:1010000014D0E3685BB1B3F5805F08D0B3F5A05F9F
:1010100005D0B3F5C05F02D0B3F5E05F31D1244A0B
:10102000936823F4E053E1680B439360236813F063
:10103000080F15D023695BB1B3F5805F08D0B3F515
:10104000A05F05D0B3F5C05F02D0B3F5E05F1ED15D
:10105000174A936823F46043216943EAC10393600C
:10106000FFF7B0FE124B9B68C3F30313124AD35C25
:10107000D840124B1860124B1868FFF7C9F90020CE
:1010800070BD40F2BA210B4800F0A2FBC7E740F266
:10109000C121084800F09CFBDAE7012070470120DD
:1010A000EEE70120ECE70120EAE700BF003C024048
:1010B00000380240B84200085C46000814000020D6
:1010C00008000020014B1868704700BF1400002082
:1010D00008B5FFF7F7FF044B9B68C3F38223034A6D
:1010E000D35CD84008BD00BF003802405446000819
:1010F00008B5FFF7E7FF044B9B68C3F34233034A8D
:10110000D35CD84008BD00BF0038024054460008F8
:1011100010B504464268884B9A426ED8E36813B112
:10112000B3F5005F6FD123692BB1B3F5806F02D0A7
:10113000B3F5C06F6DD163694FF6F372134200D1FE
:1011400023B940F6FE317D4800F042FB2268136966
:1011500023F44053E1680B431361A36822691A43E7
:1011600063691A43E3691A432168CB6823F4164381
:1011700023F00C031343CB602268536923F44073BC
:10118000A1690B435361E369B3F5004F47D023686E
:101190006B4A934200F0A38002F58062934200F014
:1011A0009E80FFF795FF0021031849411B1841F16C
:1011B0000001C90041EA5371DB00181863684FEA67
:1011C00083024FEA937341F1000102F0E3F95D4AB3
:1011D000A2FB00314909642303FB11031B013233D5
:1011E000A2FB03235B0903F0F00202EB011203F000
:1011F0000F03216813448B609CE040F6FB314F489D
:1012000000F0E6FA8AE740F6FC314C4800F0E0FADC
:1012100089E740F6FD31494800F0DAFA8BE72368A8
:10122000474A93422FD002F5806293422BD0FFF7BA
:101230004FFF0023021843EB0301121841F1000194
:10124000C90041EA5271D200101841F100016268F0
:1012500092185B4102F09EF93A4AA2FB003149091B
:10126000642303FB1103DB003233A2FB03235B097E
:101270005A0002F4F87202EB011203F0070321682E
:1012800013448B6056E0FFF733FF0023021843EB53
:101290000301121841F10001C90041EA5271D20064
:1012A000101841F10001626892185B4102F072F976
:1012B000244AA2FB00314909642303FB1103DB002C
:1012C0003233A2FB03235B095A0002F4F87202EBEB
:1012D000011203F00703216813448B602AE0FFF733
:1012E00007FF0021031849411B1841F10001C90003
:1012F00041EA5371DB00181863684FEA83024FEA32
:10130000937341F1000102F045F90E4AA2FB00314E
:101310004909642303FB11031B013233A2FB03239E
:101320005B0903F0F00202EB011203F00F032168E6
:1013300013448B6010BD00BFA037A000E842000836
:10134000001001401F85EB5170470000002800F09D
:101350008B8010B504468369002B55D00368434A3F
:10136000934210D0A2F54C4293420CD002F5806219
:10137000934208D002F54C42934204D040F24B1104
:101380003B4800F025FAA36943B1B3F5807F05D04F
:10139000B3F5007F02D0B3F5407F2FD1A36813B11E
:1013A000B3F5805F4ED1E36913B1B3F5004F4FD170
:1013B00094F83930002B51D0242384F83930226836
:1013C000D36823F40053D3602046FFF7A1FE2268C0
:1013D000136923F4904313612268536923F02A03AD
:1013E00053612268D36843F40053D3600020E06364
:1013F000202384F8393084F83A3010BD4FF4A671B8
:101400001B4800F0E5F9C9E70368184A9342C5D0C4
:10141000A2F54C429342C1D002F580629342BDD006
:1014200002F580629342B9D002F580629342B5D052
:1014300002F544429342B1D04FF4A8710C4800F039
:10144000C7F9ABE74FF4A971094800F0C1F9AAE761
:1014500040F25311064800F0BBF9A9E784F8383090
:101460002046FFF771FFA7E70120704700100140F9
:10147000E842000890F83A30DBB2202B23D121B3A8
:101480002AB390F83830012B23D0012380F838306C
:1014900081628285C2850023C363222280F83A20BC
:1014A00080F838300168CA6842F48072CA60016806
:1014B0004A6942F001024A610168CA6842F02002AA
:1014C000CA6018467047022070470120704701200B
:1014D000704702207047FEE708B503460C4A1268C1
:1014E0005AB10B4A1068033323F003030344094A3B
:1014F000934206D8064A136008BD054A06491160A2
:10150000EFE702F001FA0C2303604FF0FF30F3E73E
:101510007C00002000FC01209C2E012001230360A0
:10152000014B0B60704700BF0C0000202DE9F04319
:1015300085B004460F4643563BBB0425284621464A
:10154000ABBE0546384605B0BDE8F08314F901CBC3
:1015500003F110026A4402F810CC0133AB42F5D318
:1015600010336B44002203F8102C4FF00408E946B6
:1015700040464946ABBE8046761B002EE2D035463B
:10158000102E28BF10250023E8E70E46F5E708B522
:10159000FFF7CCFF08BD00000FB400B583B004AB6B
:1015A00053F8042B01938021074802F097F9002893
:1015B00004DC03B05DF804EB04B070470146024858
:1015C000FFF7E5FFF5E700BF88000020F8B5044607
:1015D0000D4617461E462748FFF7DEFF21682648BE
:1015E000FFF7DAFF61682548FFF7D6FFA1682448B6
:1015F000FFF7D2FFE1682348FFF7CEFF21692248B9
:10160000FFF7CAFF61692148FFF7C6FFA1692048BB
:10161000FFF7C2FFE1691F48FFF7BEFF1E48FFF753
:10162000BBFF29461D48FFF7B7FF1D4CE16A1D4867
:10163000FFF7B2FF216B1C48FFF7AEFFE16B1B48C1
:10164000FFF7AAFF15F0800F0AD115F4004F0CD157
:101650001748FFF7A1FF06991648FFF79DFFF8BD51
:1016600039461548FFF798FFEFE731461348FFF773
:1016700093FFEDE7184300082843000838430008AB
:1016800048430008584300086843000878430008AE
:101690008843000898430008A8430008B4430008A2
:1016A00000ED00E0C4430008D4430008E443000810
:1016B000144400081C440008F443000804440008D3
:1016C00083691A888A4201D0002070470268033A71
:1016D000012A01D90020704702338361012070473D
:1016E00008B500F00FF8054B054A9A60D3F888203A
:1016F00042F47002C3F8882008BD00BF00ED00E08E
:1017000000000008054BD3F8882042F47002C3F8AB
:1017100088204FF000629A60704700BF00ED00E043
:10172000224B9B6803F00C03042B11D0082B13D021
:10173000002B37D11E4B1F4A1A601C4B9B68C3F30A
:1017400003131D4AD15C1A4A1368CB4013607047DB
:10175000174B1A4A1A60F0E7144B59685A6802F09E
:101760003F0211F4800F13D0144BB3FBF2F30F4A76
:101770005268C2F3881202FB03F30C4A5268C2F3A8
:10178000014201325200B3FBF2F3094A1360D4E77D
:10179000084BB3FBF2F3054A5268C2F3881202FB0E
:1017A00003F3EAE7024B034A1A60C6E70038024037
:1017B000140000200024F4005C46000800127A00A7
:1017C00008B5FEF74BFE00F033F9FFF7A9FF08BD9F
:1017D00008B50A4601460248FFF7DEFEFEE700BFF5
:1017E000604400082DE9F04F8DB000240794089460
:1017F00009940A940B940194774B1A6B42F01002EF
:101800001A631A6B02F010020192019A02941A6B89
:1018100042F004021A631A6B02F004020292029A66
:1018200003941A6B42F080021A631A6B02F0800272
:101830000392039A04941A6B42F001021A631A6B22
:1018400002F001020492049A05941A6B42F002021B
:101850001A631A6B02F002020592059A06941A6B3B
:1018600042F008021A631B6B03F008030693069B01
:10187000224608215948FEF7FBFFDFF8708101225C
:1018800011464046FEF7F4FFDFF864B122464FF2FE
:1018900010015846FEF7ECFF082507950127089729
:1018A00009940A9407A94D48FEF782FE0797089706
:1018B00009940A9407A94046FEF77AFE0795022587
:1018C000089509940A944FF00509CDF82C9007A9C2
:1018D0004046FEF76DFE0797414B08930994414E31
:1018E00007A93046FEF764FE102307930895099474
:1018F0000A9406230B9307A93046FEF759FEE0230E
:101900000793089509940A94CDF82C9007A93046BE
:10191000FEF74EFE0423079308940994DFF8D4A041
:1019200007A95046FEF744FE4FF4806307930895DD
:1019300009940A94CDF82C9007A95046FEF738FE7A
:101940004FF210030793089709940A9407A9584681
:10195000FEF72EFE4FF4A4530793089509940A94BA
:1019600006230B9307A94046FEF722FE4FF40073AF
:1019700007930894099407A93046FEF719FE4FF41F
:10198000E0530793089509940A940A230B9307A937
:101990003046FEF70DFE202307930894099407A90B
:1019A0005846FEF705FE4FF4107307931223089371
:1019B00009940A9404230B9307A95046FEF7F8FDF7
:1019C0000795094B0893099407A90448FEF7F0FD11
:1019D0000DB0BDE8F08F00BF00380240001002409B
:1019E0000000111000000240000012100008024028
:1019F000000C02400004024072B6FEE708B50A4837
:101A00000A4B03604FF4E133436000238360C360FB
:101A100003610C2242618361C361FFF797FC00B947
:101A200008BDFFF7E9FF00BF20010020004400408F
:101A300000B595B03022002108A801F05DFF002319
:101A40000393049305930693079301931F4A116C24
:101A500041F080511164126C02F080520192019A9F
:101A600002931B4A116841F480411160126802F42C
:101A700080420292029A0222089201210B911021C7
:101A80000C910E920F930823109332231193042389
:101A900012930723139308A8FEF71CFF90B90F2396
:101AA000039302230493002105914FF4A05306935E
:101AB0004FF48053079303A8FFF7F2F920B915B04C
:101AC0005DF804FBFFF798FFFFF796FF0038024030
:101AD0000070004000B583B0FEF7C0FCFFF7A8FF20
:101AE000FFF780FEFFF78AFF344B01930223009338
:101AF0000023C8223249334801F0C6F8012808D033
:101B00004FF0500383F31188BFF36F8FBFF34F8FF4
:101B1000FEE72D4B0193022300930023C8222B499B
:101B20002B4801F0B1F8012808D04FF0500383F39F
:101B30001188BFF36F8FBFF34F8FFEE7254B0193E3
:101B4000022300930023C8222349244801F09CF873
:101B5000012808D04FF0500383F31188BFF36F8F33
:101B6000BFF34F8FFEE7002201210A2000F058FD4D
:101B70001B4A106078B1002201210A2000F050FDBC
:101B8000184A106080B1012217491848FFF772FC0B
:101B900001F0AAF8FEE74FF0500383F31188BFF37A
:101BA0006F8FBFF34F8FFEE74FF0500383F3118821
:101BB000BFF36F8FBFF34F8FFEE700BF1C01002004
:101BC00090440008411C000818010020A4440008AB
:101BD000051D000814010020B8440008651D000818
:101BE000100100200C01002009010020200100202C
:101BF0007047000030B583B00546104B186800F000
:101C000090FEC0B1002403E09DF807300A2B0ED0EF
:101C100000220DF10701094B186800F0E2FD0128D0
:101C2000F2D1631C9DF807202A55DCB2ECE7013C99
:101C300000232B55AC6003B030BD00BF1001002065
:101C400000B587B0294B029323E04FF40051284898
:101C5000FEF72AFE13E04FF480512548FEF724FEDC
:101C60000DE04FF480412248FEF71EFE07E00023FE
:101C70004FF0FF321F492048006800F0FCFC0021B3
:101C80001E4B197000910B460A461D48006801F072
:101C9000CDFB00234FF0FF3202A91748006800F087
:101CA000EAFC0128EBD14FF0FF33009300231A46E2
:101CB0001946184601F054FB0128E0D103A8FFF7AC
:101CC00099FF059B012BD2D19DF80C30302BBCD055
:101CD000312BC0D0322BC4D000234FF0FF32054946
:101CE0000548006800F0C7FCC9E700BFD044000801
:101CF000000C0240180000200C0100200801002008
:101D00001401002000B587B001E0012B1AD04FF07C
:101D1000FF33009300231A461946184601F020FBB2
:101D20000128F4D103A8FFF765FF0B4B1B78002BAC
:101D3000EBD1002100910B4603AA0848006801F08E
:101D400075FBE4E7002100910B4603AA04480068F4
:101D500001F06CFBDBE700BF08010020140100204C
:101D60001C01002010B584B02A4B0293002435E0FA
:101D70004FF0FF33009303AB00221146104601F0F1
:101D8000EFFA012834D1039C32E0234B01221A7070
:101D9000002100910B460A462048006801F046FBEE
:101DA00001281BD14FF0FF33009300231A46194638
:101DB000184601F0D5FA11E04FF0FF3300930023ED
:101DC0001A461946184601F0CBFA07E000234FF0F7
:101DD000FF3213491348006800F04DFC00234FF018
:101DE000FF3202A90F48006800F045FC0128BFD06F
:101DF000A368012BEAD12378302BC6D06378312B2E
:101E0000DAD000234FF0FF3205490648006800F0A1
:101E100032FCE3E78C450008080100201C0100208B
:101E2000180000200C010020124A12F0070F1ED0EB
:101E3000D11D21F00701C1F5963313440A460E481F
:101E40000260002141601344083B23F007030B4864
:101E5000036059601960991A51601360084B19604A
:101E6000084B1960084B4FF000421A6070474FF45E
:101E70009633E4E7800100207801002074010020FF
:101E80006C0100207001002060010020164B1A46F2
:101E90001B688342FBD3516802EB010C844509D0D7
:101EA000416800EB010C634509D00360904219D0F2
:101EB000106070474068014451601046F0E710B46C
:101EC0000A4C2468A3420BD05B6819444160136834
:101ED0001B680360904200D010605DF8044B7047AF
:101EE0000460F7E7704700BF78010020740100200C
:101EF00038B5044600F03AFF3B4B1B68DBB13B4B67
:101F00001B681C4255D1631E13F10A0F53D804F10C
:101F1000080214F0070F05D022F00703083393429C
:101F200058D91A46002A57D0314B1B68934255D3D3
:101F300030490C6804E0FFF777FFE0E721461C46D4
:101F40006368934202D22368002BF7D1264B1B68AB
:101F5000A34245D00D68083523680B6063689B1A5F
:101F6000102B10D9A01810F0070F08D04FF0500315
:101F700083F31188BFF36F8FBFF34F8FFEE743608A
:101F80006260FFF783FF626819490B689B1A0B6058
:101F9000194909688B4201D217490B60134B1B6822
:101FA0001343636000232360144A136801331360F2
:101FB00002E0002500E0002500F09CFF15F0070F6F
:101FC00010D04FF0500383F31188BFF36F8FBFF32E
:101FD0004F8FFEE70025EFE70025EDE70025EBE753
:101FE0000025E9E7284638BD740100206001002083
:101FF00070010020780100206C01002068010020A1
:10200000002834D038B50446A0F1080550F8043C47
:10201000174A1268134208D14FF0500383F3118816
:10202000BFF36F8FBFF34F8FFEE750F8081C41B12D
:102030004FF0500383F31188BFF36F8FBFF34F8FBF
:10204000FEE723EA020340F8043C00F08FFE54F858
:10205000041C084A13680B4413602846FFF716FF58
:10206000054A13680133136000F044FF38BD704720
:1020700060010020700100206401002082B0002374
:1020800001930D4B1B68B3F1FF3F08D04FF0500395
:1020900083F31188BFF36F8FBFF34F8FFEE74FF0CD
:1020A000500383F31188BFF36F8FBFF34F8F019BF2
:1020B000002BFCD002B070471C00002008480068CC
:1020C000006880F308884FF0000080F3148862B63F
:1020D00061B6BFF34F8FBFF36F8F00DF00BF00000B
:1020E00008ED00E0DFF80C00016841F470010160C8
:1020F0007047000088ED00E04FF0807340F8043C2A
:1021000021F0010140F8081C054B40F80C3C40F858
:10211000202C6FF0020340F8243C4438704700BF85
:102120007D2000080000000000000000000000000A
:10213000074B19680868B0E8F04F80F30988BFF3CF
:102140006F8F4FF0000080F311887047AFF300806D
:10215000882E01204FF0500383F31188BFF36F8F57
:10216000BFF34F8F0B4A136801331360012B00D06C
:1021700070474FF0E023D3F8043D13F0FF0FF7D082
:102180004FF0500383F31188BFF36F8FBFF34F8F6E
:10219000FEE700BF1C000020094B1B6843B94FF04D
:1021A000500383F31188BFF36F8FBFF34F8FFEE7A8
:1021B000013B034A13600BB983F31188704700BFDA
:1021C0001C000020000000000000000000000000D3
:1021D000EFF30980BFF36F8F154B1A681EF0100FD5
:1021E00008BF20ED108A20E9F04F10602DE90900AA
:1021F0004FF0500080F31188BFF34F8FBFF36F8F04
:1022000000F01EFF4FF0000080F3118809BC196830
:102210000868B0E8F04F1EF0100F08BFB0EC108A4D
:1022200080F30988BFF36F8F704700BFAFF3008062
:10223000882E012008B54FF0500383F31188BFF3B7
:102240006F8FBFF34F8F00F099FD28B14FF0E0235F
:102250004FF08052C3F8042D002383F3118808BD8A
:102260004FF0E022002313619361054B1B68054981
:10227000A1FB03139B09013B5361072313617047C3
:1022800014000020D34D62104FF0E023D3F8002D4E
:102290003D4B9A421CD04FF0E023D3F8002D3B4B2E
:1022A0009A421ED030B583B0394B1A78D2B201921F
:1022B000FF221A701B78DBB28DF803309DF80330D3
:1022C00003F05003334A1370334B07221A601BE0AC
:1022D0004FF0500383F31188BFF36F8FBFF34F8F1D
:1022E000FEE74FF0500383F31188BFF36F8FBFF306
:1022F0004F8FFEE7284A1368013B13609DF80330B7
:102300005B00DBB28DF803309DF8033013F0800FD3
:10231000F0D1214B1B68032B08D04FF0500383F3FF
:102320001188BFF36F8FBFF34F8FFEE71B021A4A6E
:10233000136003F4E0631360019BDBB2144A137073
:102340004FF0E024D4F8203D43F47003C4F8203D5E
:10235000D4F8203D43F07043C4F8203DFFF780FFE0
:1023600000250E4B1D60FFF7BDFED4F8343F43F04F
:102370004043C4F8343FFFF7A1FE00F061FEFFF7D1
:102380007DFE284603B030BD71C20F4170C20F41BF
:1023900000E400E0842D0120802D01201C0000209D
:1023A00000F1080343604FF0FF328260C3600361B5
:1023B00000230360704700230361704730B40D6849
:1023C000B5F1FF3F11D000F108031C465B681A68A5
:1023D000AA42FAD963684B6099608C6061600861B9
:1023E00003680133036030BC70470469F2E7036996
:1023F000416882688A60416851605A68824206D0AA
:10240000002202611A68013A1A60186870478268EF
:102410005A60F5E710B50446FFF79CFEA26BE36B2C
:102420009A4204D00024FFF7B7FE204610BD0124D5
:10243000F9E710B50446FFF78DFEA36B23B901241D
:10244000FFF7AAFE204610BD0024F9E770B5044648
:102450001546866B026C5AB903681BB10020013621
:10246000A66370BD806800F01DFF0023A360F6E73F
:102470006DB9406801F04EFA6368226C13446360E2
:10248000A268934219D3236863602846E7E7C068CF
:1024900001F040FAE368226C51429B1AE360226823
:1024A000934202D2A3680B44E360022D01D00020C6
:1024B000D5E726B1013E0020D1E72846CFE700202E
:1024C000CDE70346026C6AB110B50846D9681144DD
:1024D000D9609C68A14201D31968D960D96801F01C
:1024E00019FA10BD704738B50546FFF733FE95F869
:1024F000454064B201E0013C64B2002C0ADD6B6A25
:1025000043B105F1240000F0FFFD0028F3D000F0F6
:10251000C3FEF0E7FF2385F84530FFF73DFEFFF7E8
:1025200019FE95F8444064B201E0013C64B2002C0D
:102530000ADD2B6943B105F1100000F0E5FD00282C
:10254000F3D000F0A9FEF0E7FF2385F84430FFF751
:1025500023FE38BD38B590B10D460446C36B2BB190
:10256000026C0021A2FB032393B999B14FF05003F1
:1025700083F31188BFF36F8FBFF34F8FFEE74FF0E8
:10258000500383F31188BFF36F8FBFF34F8FFEE7C4
:102590000121EAE7FFF7DEFD2368E26B216C01FB16
:1025A0000230A0600020A0636360013A02FB0133A7
:1025B000E360FF2384F8443084F84530B5B92369DB
:1025C0001BB9FFF7E9FD012038BD04F1100000F050
:1025D0009BFD0028F5D04FF0E0234FF08052C3F868
:1025E000042DBFF34F8FBFF36F8FEAE704F11000A4
:1025F000FFF7D6FE04F12400FFF7D2FEE1E738B57D
:102600001D46049C0B4649B92460E0632364012104
:102610002046FFF79FFF84F84C5038BD2260F4E756
:10262000F0B583B060B10C46174605460023A4FB05
:10263000001272B923B904FB05F010F1510F0AD949
:102640004FF0500383F31188BFF36F8FBFF34F8FA9
:10265000FEE70123EEE75030FFF74AFC064638B1AB
:1026600000903B4600F1500221462846FFF7C7FF85
:10267000304603B0F0BDF0B585B0019238B10F46D9
:102680001D46044661B1022D16D0002660E04FF0D1
:10269000500383F31188BFF36F8FBFF34F8FFEE7B3
:1026A000036C002BEFD04FF0500383F31188BFF37E
:1026B0006F8FBFF34F8FFEE7E36B012B08D04FF016
:1026C000500383F31188BFF36F8FBFF34F8FFEE783
:1026D00000263DE02A4639462046FFF7B7FE636AEA
:1026E0007BB948B14FF0E0234FF08052C3F8042D7E
:1026F000BFF34F8FBFF36F8FFFF74EFD012005B083
:10270000F0BD04F1240000F0FFFC0028F4D04FF0ED
:10271000E0234FF08052C3F8042DBFF34F8FBFF377
:102720006F8FE9E7FFF738FD0020E8E702A800F027
:1027300063FD012619E0002384F8443021E00023E2
:1027400084F8453023E02046FFF7CDFE00F0D2FBB1
:10275000FFF700FDA26BE36B9A42BBD3022DB9D009
:10276000019B002BDED0002EE0D0FFF715FD00F01E
:10277000FDFAFFF7EFFC94F8442052B2B2F1FF3FAC
:10278000D9D094F8452052B2B2F1FF3FD7D0FFF72D
:1027900003FD01A902A800F03BFDD8B92046FFF7D0
:1027A00039FE0028CFD0019904F1100000F094FC0C
:1027B0002046FFF798FE00F09DFB0028C8D14FF09F
:1027C000E0234FF08052C3F8042DBFF34F8FBFF3C7
:1027D0006F8FBDE72046FFF786FE00F08BFB0020E1
:1027E0008DE7F0B585B0019220B10F46044651B196
:1027F000002654E04FF0500383F31188BFF36F8F2E
:10280000BFF34F8FFEE7036C43B14FF0500383F3E8
:102810001188BFF36F8FBFF34F8FFEE700263EE0B6
:1028200039462046FFF74DFE013DA563236923B9D4
:10283000FFF7B2FC012005B0F0BD04F1100000F07C
:1028400063FC0028F4D04FF0E0234FF08052C3F82F
:10285000042DBFF34F8FBFF36F8FE9E7FFF79CFCA9
:102860000020E8E702A800F0C7FC012621E00023D1
:1028700084F8443029E0002384F845302BE02046DA
:10288000FFF731FE00F036FB09E02046FFF72BFE94
:1028900000F030FB2046FFF7CCFD00283FD1FFF7CA
:1028A00059FCA56B002DBBD1019B002BD6D0002E6F
:1028B000D8D0FFF771FC00F059FAFFF74BFC94F801
:1028C00044305BB2B3F1FF3FD1D094F845305BB2F6
:1028D000B3F1FF3FCFD0FFF75FFC01A902A800F0E2
:1028E00097FC0028D1D12046FFF7A3FD0028C6D0D1
:1028F000019904F1240000F0EFFB2046FFF7F3FDFF
:1029000000F0F8FA0028CAD14FF0E0234FF08052CF
:10291000C3F8042DBFF34F8FBFF36F8FBFE70020C5
:1029200089E740B110B50446FFF714FCA46BFFF72C
:1029300033FC204610BD4FF0500383F31188BFF3E2
:102940006F8FBFF34F8FFEE7074B1B681B6823B9E0
:10295000064B4FF0FF321A607047034B1B68DB6871
:102960001A68024B1A607047F82D0120902D012043
:1029700010B50446006BFFF743FB2046FFF740FB12
:1029800010BD2DE9F84380460D4616469946089F2E
:102990000A9C9200A521206B00F0AEFF226B06F18D
:1029A0008043013B02EB830222F00706BDB1002207
:1029B000092A06D8AB56A11881F834300BB1013280
:1029C000F6E7002384F83D30042F0CD94FF0500374
:1029D00083F31188BFF36F8FBFF34F8FFEE70023A0
:1029E00084F83430F0E7E762A7640025E564201D31
:1029F000FFF7E1FC04F11800FFF7DDFC2461C7F1EB
:102A00000507A76164620422294604F1500000F022
:102A100073FF0122294604F1540000F06DFF4A467D
:102A200041463046FFF768FB2060099B03B11C60FC
:102A3000BDE8F88338B5002407E004EB8402930076
:102A40000E481844FFF7ACFC0134042CF5D90C4DAA
:102A50002846FFF7A5FC0B4C2046FFF7A1FC0A48CF
:102A6000FFF79EFC0948FFF79BFC0948FFF798FC1D
:102A7000084B1D60084B1C6038BD00BF242E012090
:102A8000102E0120FC2D0120E02D0120CC2D012055
:102A9000B42D0120F82D0120F42D012010B504469D
:102AA000FFF758FB294A136801331360284B1B6852
:102AB0005BB1284B1B686BB9254B1B68DA6AE36A6C
:102AC0009A4207D8224B1C6004E0214B1C6013681B
:102AD000012B37D0204A1368013313602364E36A63
:102AE00001229A401D49086802430A601C4A03EB10
:102AF000830302EB83035B68A3609868E060211D99
:102B000041609960E36A03EB8301880002EB810175
:102B10006161115801311150FFF73EFB0D4B1B68ED
:102B20007BB10B4B1B68DA6AE36A9A4209D24FF019
:102B3000E0234FF08052C3F8042DBFF34F8FBFF353
:102B40006F8F10BDFFF776FFC4E700BFB02D0120E7
:102B5000882E0120A42D0120942D0120A82D0120D4
:102B6000242E01200F4B1B68D3B110B5FFF7F2FAEA
:102B70000D4BDB68DC68201DFFF739FC0B4A13683E
:102B8000013B1360074A1368013B1360FFF704FB26
:102B90002046FFF7EDFE034B1B68002BE6D110BD6E
:102BA000704700BFC82D0120CC2D0120B02D012081
:102BB00008B5FFF7D7FF074B1B68012BF9D94FF07A
:102BC000E0234FF08052C3F8042DBFF34F8FBFF3C3
:102BD0006F8FEEE7242E012070B504460D46234B7F
:102BE0001E68234B18680430FFF701FC48B9204BDE
:102BF0001B68DB6A01229A401E490B6823EA020324
:102C00000B60B4F1FF3F0DD03444194B1B685C607E
:102C1000A6421DD9184B1868154B19680431FFF7E7
:102C2000CDFB70BD002DEFD0144A5168104B1868D1
:102C3000816018688C68C460186804306060186827
:102C4000043088601B685A61136801331360E8E739
:102C50000B4B1868064B19680431FFF7AFFB094BA3
:102C60001B68A342DDD9074B1C60DAE7AC2D0120BD
:102C7000882E0120A82D0120F42D0120B42D012043
:102C8000F82D0120902D01202DE9F04385B0074655
:102C90000E4614461D469000FFF72AF9F8B181460A
:102CA0005820FFF725F9804698B1C0F830900023EE
:102CB000039302900D9B01930C9B00932B4622469D
:102CC00031463846FFF75DFE4046FFF7E7FE01203C
:102CD00007E04846FFF794F94FF0FF3001E04FF06E
:102CE000FF3005B0BDE8F08300B583B0184B019309
:102CF00000230093822217491748FFF7C5FF0128D8
:102D000007D0B0F1FF3F19D0144B1B6803B05DF83A
:102D100004FB4FF0500383F31188BFF36F8FBFF3B1
:102D20004F8F0F4B4FF0FF321A600E4B01221A608B
:102D30000D4B00221A60FFF7A7FAE5E74FF05003AA
:102D400083F31188BFF36F8FBFF34F8FFEE700BF90
:102D50008C2D01204C460008B12B00086C46000861
:102D6000902D0120A42D0120AC2D0120024A1368D2
:102D700001331360704700BF882D0120F8B5524B16
:102D80001B68002B40F09980504B1C6801341C607C
:102D9000C4B94F4B1B681B6843B14FF0500383F31A
:102DA0001188BFF36F8FBFF34F8FFEE7484A11685A
:102DB000484B186810601960474A13680133136064
:102DC000FFF7C2FD454B1B68A34211D90020444BBD
:102DD0001B68DB6A03EB83039A00424B9B58012B71
:102DE00000D90120404B1B68002B6BD0012069E00B
:102DF000002037E0394B4FF0FF321A60E7E7374BDE
:102E00001A60E4E7D968516042E0002199621168D4
:102E100001391160DA6A01219140344E3768394333
:102E20003160304902EB82024FEA820C8C44DCF8BC
:102E300004209A609668DE6075609560DA6A02EB3D
:102E4000820C4FEA8C056E185E614D5901354FEAD0
:102E50008C0C41F80C50DA6A214B1B68DB6A9A42F1
:102E600000D301201A4B1B681B68002BC2D0184BE3
:102E70001B68DB68DB685A689442C0D35A699D6856
:102E8000D968A9609D684D6051681D1DA942B9D0DF
:102E9000002159611168013911609A6A002AB9D07C
:102EA000DE69196AB160DE694E60566803F1180187
:102EB0008E42AAD1196A5160A7E70D4A13680133FF
:102EC00013600020F8BD00BF882D0120AC2D01202B
:102ED000F82D0120F42D0120982D0120902D0120A6
:102EE000882E0120242E01209C2D0120A82D0120B8
:102EF000A02D012038B54A4B1B6843B94FF0500351
:102F000083F31188BFF36F8FBFF34F8FFEE7FFF797
:102F100021F9434B1A68013A1A601B68002B7AD1D9
:102F2000404B1B683BB9002476E0196A516015E0FC
:102F3000D968516021E000233B4A1268002A47D03B
:102F4000394BDB68DB689A6AD869196A8160D8698D
:102F50004860506803F118018842E6D00021996268
:102F60001168013911605A699868D9688160986858
:102F700048605168181D8142DAD0002159611168FA
:102F800001391160DA6A01219140284C25682943F2
:102F90002160274902EB820201EB820252689A60AB
:102FA0009468DC6060609060DA6A02EB8200840002
:102FB00001EB80005861085901300851D96A1D4A57
:102FC0001268D26A9142B7D31B4A01211160B3E75C
:102FD0000BB1FFF7B9FC194B1C6884B9164B1C6880
:102FE000D4B14FF0E0234FF08052C3F8042DBFF36B
:102FF0004F8FBFF36F8F01240EE0013C07D0FFF726
:10300000BDFE0028F9D00C4B01221A60F5E70B4BEE
:1030100000221A60E2E70024FFF7BEF8204638BD20
:10302000882D0120B02D0120E02D0120A82D0120A8
:10303000242E0120882E01209C2D0120A02D01206E
:10304000204B1B681BB1204B01221A6070471E4B9E
:1030500000221A601D4B1B68B3FA83F3DBB2C3F185
:103060001F0303EB83018A0019498A5842B94FF0C4
:10307000500383F31188BFF36F8FBFF34F8FFEE7C9
:10308000134803EB83018A00024451684968516088
:1030900003EB830C4FEA8C0208320244914209D0C0
:1030A00003EB83039A000A4B13445B68DA68094B0D
:1030B0001A607047486862469100054A0A445060A9
:1030C000EEE700BF882D01209C2D0120A82D0120B6
:1030D000242E0120882E012058B110B50C46094A33
:1030E00011681831FFF76AF901212046FFF774FDD6
:1030F00010BD4FF0500383F31188BFF36F8FBFF300
:103100004F8FFEE7882E0120C368DB68002B4AD072
:1031100030B49A6AD869196A8160D8694860516880
:1031200003F11800814247D00021996211680139EA
:1031300011602B4A1268002A44D15A699868D968EC
:103140008160986848605168181D814237D000211D
:103150005961116801391160DA6A01219140214CED
:10316000256829432160204902EB820201EB82029B
:1031700052689A609468DC6060609060DA6A02EB82
:103180008200840001EB8000586108590130085129
:10319000DA6A164B1B68DB6A9A421FD90120144B6E
:1031A000186030BC70474FF0500383F31188BFF3B1
:1031B0006F8FBFF34F8FFEE7196A5160B4E7D9688C
:1031C0005160C4E70B4A5168D9618C681C62606029
:1031D00088609A62116801311160D9E70020E0E748
:1031E000882D0120A82D0120242E0120882E0120C9
:1031F0009C2D0120E02D0120034B1B680360034B35
:103200001B684360704700BF982D0120AC2D012042
:10321000F8B5B8B10C460546E9B1FEF79BFF1C4B6B
:1032200019686B68C81A2268B2F1FF3F2AD0194E9C
:1032300036682F68B74217D08B4215D80023236019
:10324000012420E04FF0500383F31188BFF36F8F08
:10325000BFF34F8FFEE74FF0500383F31188BFF3A6
:103260006F8FBFF34F8FFEE7824203D800232360A6
:10327000012408E05B1A134423602846FFF7BCFFD3
:10328000002400E00024FEF787FF2046F8BD00BFC1
:10329000AC2D0120982D0120014B01221A607047AE
:1032A0009C2D0120002851D070B50446294B1B6885
:1032B000834208D04FF0500383F31188BFF36F8F20
:1032C000BFF34F8FFEE7C36C43B94FF0500383F356
:1032D0001188BFF36F8FBFF34F8FFEE7013BC364CD
:1032E000C16A826C914233D00BB1002070BD051DC4
:1032F0002846FFF77CF838B9E36A01229A4016495C
:103300000B6823EA02030B60A36CE362C3F10502BE
:10331000A261012000FA03F20F490E6832430A60ED
:103320000E4A03EB830302EB83035B68A360996897
:10333000E1604D609D60E36A03EB83018D0002EB69
:1033400081016161515901445151CFE7002070471B
:103350000020CBE7882E0120A82D0120242E01205B
:10336000F8B540B14FF0500383F31188BFF36F8F6E
:10337000BFF34F8FFEE70D4616461C460746FEF785
:10338000E9FE294B1B683B4493F85430DBB2022B17
:1033900010D0254A116807F1140051F8203023EAB3
:1033A000050341F8203013683B44012283F8542080
:1033B000069BF3B9FEF7F0FEFEF7CCFE34B11A4BD4
:1033C0001B6807F1140253F822302360164B1B6868
:1033D0003B4493F85430DBB2022B19D00024124B3B
:1033E0001B683B44002283F85420FEF7D5FE20469C
:1033F000F8BD11461846FFF7EFFB4FF0E0234FF002
:103400008052C3F8042DBFF34F8FBFF36F8FD1E706
:10341000054B1A6807F1140152F8213023EA06031C
:1034200042F821300124DAE7882E0120F8B541B1B5
:103430004FF0500383F31188BFF36F8FBFF34F8FAB
:10344000FEE7044617461E460D46B8B1FEF782FE5B
:10345000069B2BB105F1140354F82330069A136030
:10346000621992F85430DBB2022182F85410042E13
:103470002BD8DFE806F0120C192024004FF050037F
:1034800083F31188BFF36F8FBFF34F8FFEE71435BF
:1034900054F825203A4344F82520012B22D001245A
:1034A000FEF77AFE2046F8BD143554F82520013287
:1034B00044F82520F1E7143544F82570EDE7022B98
:1034C0005BD0143544F82570E7E72E4A1268002ACD
:1034D000E3D04FF0500383F31188BFF36F8FBFF336
:1034E0004F8FFEE76369A168E2688A60A168516056
:1034F0005A68211D8A422BD0002262611A68013A63
:103500001A60E36A01229A401F4805682A43026054
:103510001E4A03EB830302EB83035B68A360986896
:10352000E06041609960E36A03EB8301880002EB8D
:1035300081016161115801311150A36A5BB14FF0F3
:10354000500383F31188BFF36F8FBFF34F8FFEE7F4
:10355000E2685A60D0E7E26A0D4B1B68DB6A9A4268
:103560000DD94FF0E0234FF08052C3F8042DBFF384
:103570004F8FBFF36F8F012492E7002490E701245F
:103580008EE700BFAC2D0120A82D0120242E0120A4
:10359000882E012053B94AB9002908BF00281CBF52
:1035A0004FF0FF314FF0FF3000F06AB9ADF1080C79
:1035B0006DE904CE00F006F8DDF804E0DDE9022351
:1035C00004B070472DE9F047089D0E4604460F46AB
:1035D000002B4AD194468C45B2FA82F260D942B1AE
:1035E000C2F12003974020FA03F30CFA02FC1F43B8
:1035F00094404FEA1C4E1FFA8CF6B7FBFEF1230CE9
:103600000EFB117743EA074301FB06F098420AD903
:103610001CEB030301F1FF3780F01581984240F263
:103620001281023963441B1AA4B2B3FBFEF00EFBF5
:10363000103344EA034400FB06F6A6420AD91CEB09
:10364000040400F1FF3380F00081A64240F2FD80C7
:103650006444023840EA0140A41B00211DB1D4405B
:103660000023C5E90043BDE8F0878B4205D90DB1C1
:10367000C5E9000100210846F5E7B3FA83F1002906
:1036800046D1B34202D3824200F2F580841A66EB3F
:10369000030201201746002DE5D0C5E90047E2E707
:1036A000002A40F09380A1EB0C034FEA1C471FFA5D
:1036B0008CFE0121B3FBF7F607FB1630230C43EA1F
:1036C00000430EFB06F0984208D91CEB030306F1F9
:1036D000FF3802D2984200F2D08046461B1AA4B2AC
:1036E000B3FBF7F007FB103344EA03440EFB00FE84
:1036F000A64508D91CEB040400F1FF3302D2A6450D
:1037000000F2B6801846A4EB0E0440EA0640A5E796
:10371000C1F120078B4022FA07FC4CEA030C06FAA1
:1037200001FE20FA07F426FA07F344EA0E0400FA31
:1037300001F84FEA1C404FEA1449B3FBF0FE1FFAB0
:103740008CF600FB1E3349EA03430EFB06F999454C
:1037500002FA01F20BD91CEB03030EF1FF3A80F0E1
:103760008580994540F28280AEF1020E6344A3EB5E
:103770000909A4B2B9FBF0F300FB139944EA094428
:1037800003FB06F6A64208D91CEB040403F1FF3044
:1037900068D2A64266D9023B644443EA0E40A41BA9
:1037A000A0FB02E6B4427346B14652D34FD05DB19E
:1037B000B8EB030264EB090404FA07F722FA01F3F9
:1037C0001F43CC40C5E9007400214CE7C2F1200141
:1037D00020FA01F30CFA02FC26FA01F19640334379
:1037E0004FEA1C471FFA8CFEB1FBF7F007FB1016DF
:1037F000190C41EA064100FB0EF68E4204FA02F46F
:1038000008D91CEB010100F1FF382DD28E422BD9D3
:1038100002386144891B9BB2B1FBF7F607FB161116
:1038200043EA014306FB0EF1994208D91CEB03035E
:1038300006F1FF3814D2994212D9023E63445B1A52
:1038400046EA004136E73946EDE6184602E7F0451C
:10385000ADD2BEEB020366EB0C060138B146A6E71B
:103860004646ECE7034698E74046D3E7D6467EE770
:103870006444023847E708460DE7023E63442DE7FB
:10388000704700BF30B51446002C9BB005461A4661
:1038900005DA8B2303604FF0FF301BB030BD4FF4CF
:1038A0000273ADF80C3014BF04F1FF3323460293CA
:1038B00005934FF6FF7300910491ADF80E30694601
:1038C0001E9B00F091F8431CBCBF8B232B60002C87
:1038D000E3D0009B00221A70DFE7000007B50093D9
:1038E00013460A46014603480068FFF7CBFF03B0C2
:1038F0005DF804FB2000002002440346934200D1FF
:10390000704703F8011BF9E7014B1868704700BFC7
:10391000200000200A44914200F1FF3300D170479B
:1039200010B511F8014B03F8014F9142F9D110BDC8
:103930002DE9F0478E681F46BE420B6882460C4652
:1039400090462DD8B1F90C2012F4906F26D06569FD
:10395000096905EB4505A3EB010905EBD5757B1C52
:103960004B446D109D4238BF1D46530527D529464F
:1039700000F058F9064660B321694A46FFF7CAFFCE
:10398000A38923F4906343F08003A38126616561DA
:103990004E44A5EB09052660A5603E46BE4200D90F
:1039A0003E4620683246414600F082FBA3689B1BDE
:1039B000A3602368334423600020BDE8F0872A46D3
:1039C00000F048FB06460028E0D12169504600F08F
:1039D000EFFB0C23CAF80030A38943F04003A38116
:1039E0004FF0FF30E9E700002DE9F04F98468B8952
:1039F0001B069DB007460D46144610D50B6973B9DA
:103A0000402100F00FF92860286130B90C233B6099
:103A10004FF0FF301DB0BDE8F08F40236B610023F5
:103A2000099320238DF82930CDF80C803023DFF85E
:103A30009C818DF82A304FF0010923469A4613F8ED
:103A4000012B0AB1252AF9D1BAEB040B0BD05B4646
:103A5000224629463846FFF76BFF013000F0A78069
:103A6000099A5A4409929AF80030002B00F09F807E
:103A700000234FF0FF32CDE905230AF1010A049338
:103A800007938DF853301A935446052214F8011BFE
:103A90004E4800F03DFB049AD8B9D00644BF20231D
:103AA0008DF85330110744BF2B238DF853309AF80B
:103AB00000302A2B15D0079A544600204FF00A0CEC
:103AC000214611F8013B303B092B4BD9B0B107928D
:103AD00014E0A0EB080309FA03F313430493A2468E
:103AE000D2E7039B191D1B680391002BBBBF5B42F0
:103AF00042F0020207930793B8BF049223782E2B5B
:103B00000AD163782A2B32D1039B1A1D1B680392BA
:103B100043EAE37302340593DFF8C0A0217803225F
:103B2000504600F0F5FA38B1049BA0EB0A004022A1
:103B3000824013430134049314F8011B24488DF888
:103B40002810062200F0E4FA002836D0214B1BBBD7
:103B5000039B073323F0070308330393099B334484
:103B600009936AE70CFB02320C460120A8E7002308
:103B70000134059319464FF00A0C204610F8012B2A
:103B8000303A092A03D9002BC6D00591C4E70CFBB3
:103B9000012104460123F0E703AB00932A460E4BB4
:103BA00004A93846AFF30080421C0646D6D1AB8943
:103BB0005B063FF52DAF09982CE703AB00932A462F
:103BC000054B04A9384600F01BF9EDE770460008E4
:103BD0007A460008000000003139000876460008E7
:103BE00070B50F4E0C463168054611B900F07AFAEF
:103BF00030602146284600F075FA431C03D14FF08F
:103C0000FF34204670BDC41C24F00304A042F8D049
:103C1000211A284600F066FA0130F2D1EFE700BF22
:103C20008C2E01202DE9F843CD1C25F00305083525
:103C30000C2D38BF0C25002D064601DBA94204D906
:103C40000C2333600020BDE8F883DFF8D48000F057
:103C5000F5F9D8F800301C4644BB29463046FFF73A
:103C6000BFFF431C044658D1D8F800402746002F18
:103C700043D1002C4BD023683946304604EB03096E
:103C800000F030FA814542D121686D1A294630464C
:103C9000FFF7A6FF01303AD023682B442360D8F801
:103CA00000305A6862BBC8F800700FE02268521BEF
:103CB00020D40B2A17D96119A342256018BF596077
:103CC000636808BFC8F8001062514B60304600F0CE
:103CD000BBF904F10B00231D20F00700C21A1CBF22
:103CE0001B1AA350AFE76268A3420CBFC8F80020BC
:103CF0005A60EBE723466468AEE73C467F68B6E768
:103D00001A465B68A342FBD100235360DEE70C2315
:103D10003360304600F098F994E70560D6E700BFBD
:103D2000902E01202DE9F047164698468A680B69C7
:103D3000DDF820909342B8BF1346336091F84320DA
:103D400007460C460AB1013333602368990642BF27
:103D5000336802333360256815F0060506D104F197
:103D6000190AE36832689B1AAB4226DC94F84330A8
:103D70002268003B18BF012392062BD404F14302B2
:103D800041463846C84701301ED02368226903F0F7
:103D90000603042B02BFE5683368ED1AA3680CBF65
:103DA00025EAE57500259342C4BF9B1AED1800264D
:103DB0001A34B5421AD1002008E001235246414688
:103DC0003846C847013003D14FF0FF30BDE8F087D7
:103DD0000135C6E7E1185A1C302081F8430022441F
:103DE00094F8451082F843100233C7E701232246B6
:103DF00041463846C8470130E6D00136D9E70000D1
:103E00002DE9FF470F7E0C9E782F914680460C4689
:103E10009A4601F1430207D8622F0AD8002F00F01A
:103E2000D180582F00F0B88004F1420684F8427027
:103E30003AE0A7F16303152BF6D801A151F823F05E
:103E4000993E0008AD3E0008293E0008293E0008C2
:103E5000293E0008293E0008AD3E0008293E000822
:103E6000293E0008293E0008293E0008AB3F000813
:103E7000D73E0008653F0008293E0008293E00089B
:103E8000CD3F0008293E0008D73E0008293E000823
:103E9000293E00086D3F000833681A1D1B68326018
:103EA00004F1420684F8423001239CE03368206824
:103EB000191D3160060601D51D6803E04506FBD5D6
:103EC000B3F90050002D03DA2D236D4284F84330FE
:103ED00058480A2311E021683368080653F8045B48
:103EE00002D4490648BFADB26F2F5248336014BFA9
:103EF0000A230823002184F843106668A660002E78
:103F000005DB21682E4321F0040121604BD01646C9
:103F1000B5FBF3F103FB1157C75D06F8017D2F4692
:103F2000BB420D46F4D9082B0BD12368DF0708D517
:103F3000236961689942DEBF302306F8013C06F12F
:103F4000FF36921B2261CDF800A04B4603AA214602
:103F50004046FFF7E7FE01304AD14FF0FF3004B092
:103F6000BDE8F087236843F02003236032487827B8
:103F700084F84570236831681F0651F8045B02D449
:103F80005F0648BFADB23160D90744BF43F020039C
:103F900023601DB11023ADE72648E9E7236823F02D
:103FA00020032360F6E71646BDE73368256861699C
:103FB000181D30602E061B6801D5196002E06806E6
:103FC000FBD51980002323611646BCE733681A1D10
:103FD00032601E6862680021304600F099F808B12E
:103FE000801B606063682361002384F84330AAE784
:103FF0002369324649464046D0470130ADD0236858
:104000009B0713D4E068039B9842B8BF1846A6E705
:104010000123324649464046D04701309DD0013504
:10402000E36803995B1AAB42F2DCEBE7002504F18D
:104030001906F5E78146000892460008014800F09D
:1040400061B800BF942E0120014800F05CB800BFA9
:10405000942E01202DE9F041074614460D4621B962
:10406000BDE8F0411146FFF7DDBD2AB900F0A0F828
:1040700025462846BDE8F08100F0E4F88442064673
:1040800002D8B4EB500FF4D821463846FFF7CAFDEA
:10409000804608B94546ECE7B4422246294628BF87
:1040A0003246FFF737FC2946384600F081F8F1E741
:1040B000884210B501EB020402D98442234607D896
:1040C000431EA14208D011F8012B03F8012FF8E795
:1040D000024401468A4200D110BD13F8014D02F896
:1040E000014DF7E738B5064D0023044608462B601E
:1040F000FDF7F2F9431C02D12B6803B1236038BDF0
:10410000840000207047704700000000000000009D
:1041100001F0FF01102A2BDB10F0070F08D010F878
:10412000013B013A8B422DD010F0070F42B3F6D17C
:10413000F0B441EA012141EA014122F007047FF095
:1041400000070023F0E80256083C85EA010586EAEC
:10415000010685FA47F5A3FA87F586FA47F6A5FA28
:1041600087F68EB9EED1F0BC01F0FF0102F0070234
:1041700032B110F8013B013A83EA010313B1F8D1DF
:104180000020704701387047002D06BF35460338C0
:10419000073815F0010F07D1013015F4807F02BFF9
:1041A000013015F4C03F0130F0BC0138704700BF4A
:1041B00038B50546002941D051F8043C0C1F002BAE
:1041C000B8BFE418FFF73AFF1D4A136833B96360BC
:1041D00014602846BDE83840FFF736BFA34208D92F
:1041E000206821188B4201BF19685B68091821609B
:1041F000EDE71A465B680BB1A342FAD91168501873
:10420000A0420BD120680144501883421160E0D1D4
:1042100018685B68536008441060DAE702D90C2321
:104220002B60D6E7206821188B4204BF19685B68B1
:10423000636004BF091821605460CAE738BD00BF3D
:10424000902E012051F8043C181F002BBCBF0B58C6
:10425000C01870472E2E2F73797374656D2F73728B
:10426000632F73746D333266342D68616C2F7374F1
:104270006D3332663478785F68616C5F636F727437
:1042800065782E63000000002E2E2F7379737465FD
:104290006D2F7372632F73746D333266342D6861C2
:1042A0006C2F73746D3332663478785F68616C5F3D
:1042B0006770696F2E6300002E2E2F7379737465FB
:1042C0006D2F7372632F73746D333266342D686192
:1042D0006C2F73746D3332663478785F68616C5F0D
:1042E0007263632E630000002E2E2F737973746542
:1042F0006D2F7372632F73746D333266342D686162
:104300006C2F73746D3332663478785F68616C5FDC
:10431000756172742E630000537461636B20667262
:10432000616D653A0A000000205230203D202025B2
:104330003038580A00000000205231203D2020254E
:104340003038580A00000000205232203D2020253D
:104350003038580A00000000205233203D2020252C
:104360003038580A0000000020523132203D20250C
:104370003038580A00000000204C52203D202025F3
:104380003038580A00000000205043203D202025EE
:104390003038580A0000000020505352203D20259C
:1043A0003038580A000000004653522F4641523A16
:1043B0000A0000002043465352203D20202530387B
:1043C000580A00002048465352203D20202530380E
:1043D000580A00002044465352203D202025303802
:1043E000580A00002041465352203D2020253038F5
:1043F000580A0000204D4D464152203D20253038BE
:10440000580A00002042464152203D2020253038E5
:10441000580A00004D6973630A000000204C522FB7
:104420004558435F52455455524E3D20253038582B
:104430000A0000005B486172644661756C745D0A35
:10444000000000005B4275734661756C745D0A0084
:104450005B55736167654661756C745D0A000000A9
:1044600057726F6E6720706172616D6574657273EB
:104470002076616C75653A2066696C65202573202D
:104480006F6E206C696E652025640D0A00000000C7
:104490004170706C69616E6365735F48616E646CD6
:1044A000696E6700436F6D6D616E645F48616E6435
:1044B0006C696E67000000004D656E755F4469733E
:1044C000706C61795F48616E646C696E67000000B2
:1044D0003D3D3D3D3D3D3D3D3D3D3D3D3D3D3D3D0C
:1044E0003D3D3D3D3D3D3D3D3D3D3D0A7C20202047
:1044F00020204170706C69616E636573204D656E3C
:104500007520202020207C0A3D3D3D3D3D3D3D3D28
:104510003D3D3D3D3D3D3D3D3D3D3D3D3D3D3D3DCB
:104520003D3D3D0A42756C62203120202020202034
:10453000202020202020202020202D2D2D3E300A3C
:1045400042756C6220322020202020202020202054
:104550002020202020202D2D2D3E310A46616E2066
:10456000202020202020202020202020202020204B
:1045700020202D2D2D3E320A456E74657220796FF4
:1045800075722063686F6963653A20003D3D3D3D6B
:104590003D3D3D3D3D3D3D3D3D3D3D3D3D3D3D3D4B
:1045A0003D3D3D3D3D3D3D0A7C20202020202020FA
:1045B000202020204D656E752020202020202020E6
:1045C00020207C0A3D3D3D3D3D3D3D3D3D3D3D3D49
:1045D0003D3D3D3D3D3D3D3D3D3D3D3D3D3D3D0A3E
:1045E0004170706C69616E63657320436F6E7472A5
:1045F0006F6C202020202D2D2D3E300A45786974C7
:1046000020202020202020202020202020202020AA
:1046100020202D2D2D3E310A456E74657220796F54
:1046200075722063686F6963653A20002F3D3D3DD8
:104630003D3D3D3D494E56414C494420454E545226
:10464000593D3D3D3D3D3D3D2F0A000049444C450F
:104650000000000000000000010203040000000050
:10466000000000000102030406070809040000001E
:10467000232D302B2000686C4C006566674546474B
:1046800000303132333435363738394142434445CE
:10469000460030313233343536373839616263643D
:1046A000656600001000000000000000017A520062
:1046B000027C0E011B0C0D00100000001800000011
:1046C00000000000100000000000000010000000CA
:1046D00000000000017A5200027C0E011B0C0D004C
:1046E000380000001800000028FAFFFF9E000000BC
:1046F00000510E1084048503860287015BC7C6C57E
:10470000C40E004C0A420B0A420B0E1084048503AF
:0C4710008602870151C7C6C5C40E000018
:08471C00A8EEFF7F0100000080
:104724007856341201FFFFFF1000000080000020C3
:10473400000000000024F4002C460008AAAAAAAA3B
:1047440024000020000000000000000068000000B9
:10475400D000000000000000000000000000000085
:104764000000000000000000000000000000000045
:104774000000000000000000000000000000000035
:104784000000000000000000000000000000000025
:04479400325476988D
:040000050800018965
:00000001FF
